:100000000C945D000C9485000C9485000C94850084
:100010000C9485000C9485000C9485000C9485004C
:100020000C9485000C9485000C9485000C94FE01C2
:100030000C9485000C9485000C9485000C9485002C
:100040000C94B4010C9485000C9485000C948500EC
:100050000C9485000C9485000C9485000C9485000C
:100060000C9485000C9485000000000024002700FB
:100070002A0000000000250028002B0004040404CE
:100080000404040402020202020203030303030342
:10009000010204081020408001020408102001021F
:1000A00004081020000000080002010000030407FB
:1000B0000000000000000000A60311241FBECFEFC7
:1000C000D8E0DEBFCDBF11E0A0E0B1E0E2E7F8E0AC
:1000D00002C005900D92A030B107D9F721E0A0E051
:1000E000B1E001C01D92A433B207E1F710E0CDE505
:1000F000D0E004C02197FE010E943104CC35D10725
:10010000C9F70E94BF020C9437040C940000CF92F0
:10011000DF92EF92FF92DC01A03282E0B8070CF090
:100120003EC0B7FD06C0A53BB1052CF0A4EBB0E086
:1001300002C0A0E0B0E08091320128E830E069011F
:10014000C81AD10887FDD394CC0CDD1CCC0CDD1C67
:100150000D2C000CEE08FF088091330128E532E0F9
:10016000281B310987FD3395220F331F220F331FC0
:10017000A901330F660B770B9A01AB012C193D09CE
:100180004E095F090E94EC0324EB30E040E050E0B0
:100190000E94C203C20ED31EE41EF51ED60190912A
:1001A00031019C3098F58091320148E850E0481BBD
:1001B000510987FD5395440F551F440F551FA41730
:1001C000B5078CF08091330128E532E0281B310916
:1001D00087FD3395220F331F220F331FAD012A17DE
:1001E0003B070CF4A90142505109440F551F2FB78A
:1001F000F894892F90E0FC01EE0FFF1F8E0F9F1FD8
:10020000FC01E35FFE4F528341832FBFFF90EF90CD
:10021000DF90CF90089590E0FC01EC55FF4F2491C2
:10022000FC01E057FF4F3491FC01E458FF4FE4918B
:10023000EE2309F43CC0222339F1233091F038F445
:100240002130A9F0223001F584B58F7D12C027300E
:1002500091F02830A1F02430B9F4809180008F7D96
:1002600003C0809180008F77809380000DC084B59B
:100270008F7784BD09C08091B0008F7703C08091D3
:10028000B0008F7D8093B000F0E0EE0FFF1FEE58BE
:10029000FF4FA591B4919FB7F894611104C08C9160
:1002A0003095382302C0EC913E2B3C939FBF0895BC
:1002B0003FB7F8948091090190910A01A0910B0138
:1002C000B0910C0126B5A89B05C02F3F19F00196EF
:1002D000A11DB11D3FBFBA2FA92F982F8827820FCC
:1002E000911DA11DB11DBC01CD0142E0660F771F1C
:1002F000881F991F4A95D1F708958F929F92AF92C8
:10030000BF92CF92DF92EF92FF920E9458014B0171
:100310005C018FE0C82ED12CE12CF12C0E945801F9
:10032000DC01CB0188199909AA09BB09883E9340D1
:10033000A105B10598F321E0C21AD108E108F1083E
:1003400088EE880E83E0981EA11CB11CC114D10454
:10035000E104F10419F7FF90EF90DF90CF90BF9088
:10036000AF909F908F9008951F920F920FB60F92AB
:1003700011242F933F938F939F93AF93BF938091BB
:10038000050190910601A0910701B09108013091FB
:10039000040123E0230F2D3720F40196A11DB11D88
:1003A00005C026E8230F0296A11DB11D209304016C
:1003B0008093050190930601A0930701B093080173
:1003C0008091090190910A01A0910B01B0910C015B
:1003D0000196A11DB11D8093090190930A01A0937C
:1003E0000B01B0930C01BF91AF919F918F913F9101
:1003F0002F910F900FBE0F901F9018951F920F9284
:100400000FB60F9211242F933F934F935F936F93E7
:100410007F938F939F93AF93BF93EF93FF938091BD
:10042000010187FF05C010928500109284001BC057
:1004300020910101022E000C330B8091000190E00D
:100440002817390784F480910101082E000C990BBC
:10045000FC01EE0FFF1F8E0F9F1FFC01E35FFE4F9D
:10046000808186FD15C0809101018F5F809301011D
:1004700020910101022E000C330B8091000190E0CD
:1004800028173907C4F4809101018C3064F113C03E
:1004900080910101082E000C990BFC01EE0FFF1F4B
:1004A0008E0F9F1FFC01E35FFE4F808160E08F7322
:1004B0000E940B01D8CF8091840090918500049612
:1004C00080349C4918F480E49CE905C08091840044
:1004D00090918500049690938900809388008FEF17
:1004E000809301013BC02091840030918500809170
:1004F0000101082E000C990BFC01EE0FFF1F8E0F5F
:100500009F1FFC01E35FFE4F81819281820F931F49
:10051000909389008093880080910101082E000C3F
:10052000990BFC01EE0FFF1F8E0F9F1FFC01E35F75
:10053000FE4F808186FF12C080910101082E000CC1
:10054000990BFC01EE0FFF1F8E0F9F1FFC01E35F55
:10055000FE4F808161E08F730E940B01FF91EF914C
:10056000BF91AF919F918F917F916F915F914F91CB
:100570003F912F910F900FBE0F901F901895789478
:1005800084B5826084BD84B5816084BD85B5826098
:1005900085BD85B5816085BD80916E008160809349
:1005A0006E001092810080918100826080938100B2
:1005B00080918100816080938100809180008160C2
:1005C000809380008091B10084608093B10080911D
:1005D000B00081608093B00080917A008460809345
:1005E0007A0080917A00826080937A0080917A000C
:1005F000816080937A0080917A00806880937A008D
:100600001092C100809131018C3008F068C0E9E996
:10061000F0E02491E5E8F0E08491882399F090E0FF
:10062000880F991FFC01E859FF4FA591B491FC0177
:10063000EE58FF4F859194918FB7F894EC91E22B8F
:10064000EC938FBF80913101E82FF0E09F01220FE2
:10065000331FE20FF31FE35FFE4F9081907C9960A0
:10066000908310923201109233016CE00E942504B5
:100670009CE0899FB001112440E050E09B01240FD1
:10068000351FF901EE0FFF1F2E0F3F1FF901E35F2A
:10069000FE4F908196FD16C04F5F5F4F4C30510565
:1006A00069F781110FC01092800082E08093810071
:1006B0001092850010928400B19A80916F00826040
:1006C00080936F00E0913101F0E0CF01880F991F16
:1006D000E80FF91FE35FFE4F80818064808300E0B4
:1006E00010E084EBE82EF12C10920301109202012D
:1006F000C0910201D0910301C43BD1055CF4CE014D
:100700000E9487000E947D012196D0930301C0932F
:100710000201EECFF0920301E0920201C0910201CA
:10072000D09103011C161D065CF4CE010E948700C7
:100730000E947D012197D0930301C0930201EECF67
:100740000115110589F20E940000CECF80910001B1
:100750008C30A0F491E0980F9093000180933101C8
:1007600090E0FC01EE0FFF1F8E0F9F1FFC01E35F67
:10077000FE4F88EB9BE09283818308958FEF8093F7
:1007800031010895052E97FB1EF400940E94D903B1
:1007900057FD07D00E94F40307FC03D04EF40C94DD
:1007A000D90350954095309521953F4F4F4F5F4F5E
:1007B000089590958095709561957F4F8F4F9F4FCD
:1007C00008950E941604A59F900DB49F900DA49FBC
:1007D000800D911D11240895B7FF0C94E1030E9430
:1007E000E103821B930B0895A1E21A2EAA1BBB1BE7
:1007F000FD010DC0AA1FBB1FEE1FFF1FA217B307ED
:10080000E407F50720F0A21BB30BE40BF50B661F02
:10081000771F881F991F1A9469F7609570958095C6
:1008200090959B01AC01BD01CF010895A29FB0013D
:10083000B39FC001A39F700D811D1124911DB29F14
:10084000700D811D1124911D0895991B79E004C03C
:10085000991F961708F0961B881F7A95C9F78095FF
:100860000895EE0FFF1F0590F491E02D0994F89480
:02087000FFCFB8
:00000001FF
